:100000000C94B9000C94E1000C94E1000C944B03A7
:100010000C944B030C944B030C94E1000C94E10002
:100020000C94E1000C94E1000C94E1000C94E100CC
:100030000C94E1000C94E1000C94E1000C94E100BC
:100040000C9401030C94E1000C94E30D0C94BD0D91
:100050000C94E1000C94E1000C94E1000C94E1009C
:100060000C94E1000C94E1006C070207B907050746
:1000700008070C070F071207150718071B071E07AD
:100080002107240728072B07BD073A073D0740072C
:10009000440748074B074F075207550758075B07A8
:1000A0005F07620765076807660AD50A5109D50A1E
:1000B000D50A7D0AD50AD50AD50AD50AD50A460930
:1000C0003209AF0A4609570AC50A230A3409A209A8
:1000D000990AAC0A32098F0AD50AB60AD50AD50A96
:1000E000D50AD50AD50AD50AD50AD50AD50AD50A18
:1000F000D50AD50AD50AD50AD50AD50AD50AD50A08
:100100003209D50AD50AD50AD50AF709D70A5709F7
:10011000D50AAC0A00000000240027002A000000D5
:1001200000080002010000030407000000000000B6
:10013000000000000000250028002B000000000047
:100140002300260029000404040404040404020219
:100150000202020203030303030301020408102046
:1001600040800102040810200102040810201F0E24
:10017000150E11241FBECFEFD8E0DEBFCDBF11E0BA
:10018000A0E0B1E0E4E1F5E202C005900D92AA3FE3
:10019000B107D9F723E0AAEFB1E001C01D92AA3060
:1001A000B207E1F710E0C8EBD0E004C02197FE01F0
:1001B0000E942010C73BD107C9F70E94CA0E0C94B9
:1001C0007D120C94000020914802309149022817BA
:1001D000390771F49091460280914702981741F0D7
:1001E000E0914602F0E0E150FE4F808190E00895FA
:1001F0008FEF9FEF089508951F93CF93DF93DC0156
:100200005C962D913C915D972115310539F481E083
:1002100090E013969C938E9312973DC05196ED916A
:10022000FC91529750969C915097892F80951FB7BB
:100230005E964C915E9741FB772770F941FD609582
:10024000F8944081772311F0492B01C04823408363
:10025000E9012197F1F748E0508160FF02C0592B76
:1002600001C058235083E9012197F1F76695415069
:1002700099F7772321F090818923808303C08081BF
:10028000982B90831FBF5C968D919C915D970197F1
:10029000F1F721E030E0C901DF91CF911F9108957E
:1002A00020914802309149022817390771F4809152
:1002B00047022091460290E0805C9F4F821B91098B
:1002C00060E470E00E94EA0F089580E090E00895F5
:1002D000209148023091490228173907B9F49091CA
:1002E000460280914702981789F0E0914602F0E0BB
:1002F000E150FE4F80812091460230E02F5F3F4F5A
:100300002F7333272093460290E008958FEF9FEFDD
:1003100008958EBD00000DB407FEFDCF8EB5089583
:100320000E94E90B882321F00E94440B0C948F0853
:100330000895FC01848DDF01A80FB11DA35ABF4FA2
:100340002C91848D90E001968F739927848FA689D4
:10035000B7892C93A089B1898C9180648C93938DFB
:10036000848D981306C00288F389E02D80818F7DEB
:100370008083089590E0FC01E25EFE4F3491FC0121
:10038000E65AFE4F2491FC01EA5BFE4FE491EE2316
:1003900009F43BC0332339F1333091F038F4313074
:1003A000A9F0323001F584B58F7D12C0373091F05D
:1003B0003830A1F03430B9F4809180008F7D03C0D3
:1003C000809180008F77809380000DC084B58F77F7
:1003D00084BD09C08091B0008F7703C08091B000C8
:1003E0008F7D8093B000F0E0EE0FFF1FEE5CFE4FBC
:1003F000A591B4918FB7F894EC91611103C0209549
:100400002E2301C02E2B2C938FBF0895CF92DF9205
:10041000EF92FF920F931F93CF93DF9300D0CDB74E
:10042000DEB78C01E62EF22E60E0FC018089498364
:100430005A830E94BA0182E00E9489018E2D0E9497
:1004400089014981E42EC42E5A81D52E8C2D8E1916
:100450008F1530F4F60181916F010E948901F6CF6A
:1004600061E0F80180890F900F90DF91CF911F918B
:100470000F91FF90EF90DF90CF900C94BA01EF9224
:10048000FF921F93CF93DF931F92CDB7DEB77C010E
:10049000162F60E0FC01808949830E94BA0182E046
:1004A0000E948901812F0E9489014981842F0E9425
:1004B000890161E0F70180890F90DF91CF911F9151
:1004C000FF90EF900C94BA01CF92DF92EF92FF92DF
:1004D0000F931F93CF93DF9300D0CDB7DEB77C018E
:1004E000162FC22E60E0FC01808949835A830E9446
:1004F000BA0183E00E948901812F0E94890149810C
:10050000042F5A81152FD12CDC1459F0F8E0DF1696
:1005100041F080E00E948901F80181938F01D3941A
:10052000F3CF61E0F70180890F900F90DF91CF91B9
:100530001F910F91FF90EF90DF90CF900C94BA0134
:10054000CF93DF9390E0FC01E65AFE4F2491FC012B
:10055000EA5BFE4F8491882361F190E0880F991F38
:10056000FC01EC5EFE4FC591D491FC01EE5CFE4FA8
:10057000A591B491611109C09FB7F8948881209525
:1005800082238883EC912E230BC0623061F49FB7E5
:10059000F8943881822F809583238883EC912E2BC9
:1005A0002C939FBF06C08FB7F894E8812E2B288329
:1005B0008FBFDF91CF9108953FB7F89480914002AB
:1005C00090914102A0914202B091430226B5A89BAE
:1005D00005C02F3F19F00196A11DB11D3FBFBA2FD5
:1005E000A92F982F8827820F911DA11DB11DBC0135
:1005F000CD0142E0660F771F881F991F4A95D1F7FA
:1006000008951F920F920FB60F9211242F933F93CC
:100610008F939F93AF93BF938091FA019091FB01C9
:10062000A091FC01B091FD0130913F0223E0230F26
:100630002D3720F40196A11DB11D05C026E8230F1A
:100640000296A11DB11D20933F028093FA01909361
:10065000FB01A093FC01B093FD01809140029091B9
:100660004102A0914202B09143020196A11DB11D29
:100670008093400290934102A0934202B0934302C0
:10068000BF91AF919F918F913F912F910F900FBE8E
:100690000F901F9018951F920F920FB60F92112472
:1006A0002F933F934F935F936F937F938F939F937A
:1006B000AF93BF93EF93FF93E0914802F09149020B
:1006C000309709F451C0968DA685B785858591FF31
:1006D00004C09C91892329F447C09C91892309F087
:1006E00043C0A389B4899C918589809589238C9383
:1006F000868997890197F1F7608D718DA685B785F9
:10070000558538E020E0CB010197F1F7822F90E08A
:1007100095958795282F4C91452309F020683150F5
:1007200091F7868D81FD20958091470290E001969A
:100730008F73992730914602381749F0A0914702EC
:10074000B0E0A150BE4F2C938093470203C0868D2A
:100750008160868F828D938D0197F1F7A389B4898B
:100760009C918589892B8C93FF91EF91BF91AF91DB
:100770009F918F917F916F915F914F913F912F91B9
:100780000F900FBE0F901F901895E0914802F091C6
:100790004902E817F90769F4A389B4899C9185890E
:1007A000809589238C93109249021092480281E02F
:1007B000089580E008951F93CF93DF93EC0160E0EC
:1007C00088890E94BA0180EA0E94890180E00E9423
:1007D0008901182F61E088890E94BA01812FDF9179
:1007E000CF911F910895EF92FF921F93CF93DF93C4
:1007F00000D0CDB7DEB77C01162F60E0FC01808908
:100800002A8349830E94BA0185E00E948901812FD1
:100810000E9489014981842F0E9489012A81822FA7
:100820000E94890161E0F70180890F900F90DF91AC
:10083000CF911F91FF90EF900C94BA011F93CF932B
:10084000DF93EC01162F60E088890E94BA0183E0F3
:100850000E948901812F0E94890180E00E94890104
:10086000182F61E088890E94BA01812FDF91CF9112
:100870001F9108955F926F927F928F929F92AF9295
:10088000BF92CF92DF92EF92FF920F931F93CF937D
:10089000DF9300D000D0CDB7DEB78C01A12CB12CF6
:1008A00040E3842E50E4752E60E5662ECE0101965D
:1008B0007C0173E0572E580E89827A826B82670121
:1008C000F60191906F01692DC8010E941E04982FB6
:1008D000987083FD04C0DD24D394D90C04C05C104F
:1008E000EFCFD12C92E0FFEFAF1ABF0A923029F47C
:1008F00042E3A416B10401F76BC082E3A816B10469
:1009000009F466C0F8012581A8014A5F5F4F65E0E0
:100910006D0DC8010E940602F8018685813019F428
:10092000858180648583F801458164E06D0DC8018F
:100930000E943F02F80181819281A381B4812081CC
:100940002130B1F48C839B83CD01AA27BB27382F9C
:100950003C71282F2370F8E03F9F200D1124286060
:100960002A8335E0969587953A95E1F789830DC0FE
:100970009C0193E0369527959A95E1F72983829516
:10098000880F807E8A831C821B8224E0A7016D2D44
:10099000C8010E940602DA9428E048E06D2DC801E3
:1009A0000E94F303E12CF12C4FEFE41AF40A6D2DB1
:1009B000C8010E941E0483FF05C082E3E816F1040B
:1009C00099F708C092E3E916F10421F080E003C032
:1009D00086E001C087E00F900F900F900F90DF919D
:1009E000CF911F910F91FF90EF90DF90CF90BF902C
:1009F000AF909F908F907F906F905F900895EF924F
:100A0000FF920F931F93CF93DF9300D000D0CDB709
:100A1000DEB78C01F62EFC01108211821282138245
:100A2000148224E0AE014F5F5F4F0E9464028A810E
:100A30009981482F50E065E0559547956A95E1F713
:100A4000F8E09F9F400D511D1124052E000C660BF0
:100A5000770BF801418352836383748383FF24C03F
:100A600092E0440F551F661F771F9A95D1F7837048
:100A7000480F511D611D711D762F652F542F44277E
:100A80008B81480F511D611D711D762F652F542FCD
:100A900044278C81480F511D611D711D4183528374
:100AA0006383748381E080836FEF6F0DC8010E94C0
:100AB0001E04E82E64E06F0DC8010E941E04282F5A
:100AC000F8018583E3FE03C081E0868702C0F80158
:100AD00016862F70F8012583A8014A5F5F4F65E0F5
:100AE0006F0DC8010E9464020F900F900F900F903D
:100AF000DF91CF911F910F91FF90EF9008950F9389
:100B00001F93CF938C01C62F262F40EE6FE00E94DB
:100B1000F3036FE0C8010E941E04982F907E81E0CD
:100B20009C1301C080E0CF911F910F910895982FE1
:100B300080ED890F8A3070F08FE9890F863010F4CC
:100B400089EA05C08FEB890F863018F489EC890F8C
:100B5000089580E00895CF93C82F803128F460E392
:100B60008AE492E00E945E0D6C2F70E080E090E0DD
:100B700040E1CF910C947A0D3F924F925F926F9229
:100B80007F928F929F92AF92BF92CF92DF92EF921D
:100B9000FF920F931F93CF93DF93EC0188A50E94E0
:100BA0009705C82E89A50E949705D12CE12CF12C20
:100BB0009CE1CC0CDD1CEE1CFF1C9A95D1F790E05B
:100BC000A0E0B0E0B82FAA2799278827C80ED91E21
:100BD000EA1EFB1E8AA50E949705182F8BA50E946E
:100BE0009705482E8CA50E949705882E8DA50E94FA
:100BF0009705082F8EA50E949705382E8FA50E9475
:100C00009705C80ED11CE11CF11C812F90E0A0E0DB
:100C1000B0E034E1880F991FAA1FBB1F3A95D1F7A6
:100C20008C0D9D1DAE1DBF1D512C612C712C3201F0
:100C300055244424840D951DA61DB71D912CA12C6F
:100C4000B12C5CE0880C991CAA1CBB1C5A95D1F7EE
:100C5000880D991DAA1DBB1D10E020E030E0322F49
:100C6000212F102F0027800F911FA21FB31F432D8C
:100C700050E060E070E0E4E0440F551F661F771F0E
:100C8000EA95D1F7840F951FA61FB71FBF718A8FF2
:100C90009B8FAC8FBD8FDF91CF911F910F91FF90F4
:100CA000EF90DF90CF90BF90AF909F908F907F900C
:100CB0006F905F904F903F900895CF92DF92EF92A8
:100CC000FF92CF93DF93EC0188A50E949705C82E71
:100CD00089A50E949705D12CE12CF12CFE2CED2C3E
:100CE000DC2CCC2490E0A0E0B0E024E0880F991F39
:100CF000AA1FBB1F2A95D1F7C80ED91EEA1EFB1EDC
:100D00008AA50E949705C80ED11CE11CF11C87E042
:100D1000D822EE24FF24CA8EDB8EEC8EFD8EDF916E
:100D2000CF91FF90EF90DF90CF900895DF92EF92F8
:100D3000FF920F931F93CF93DF93EC01EC88FB8816
:100D40008C010E5F1F4FDFB6F8948091FE01811178
:100D500027C0E0E5F1E02491E4E6F1E0849130E0A1
:100D6000220F331F2C5E3E4FF901A591B491EC91F7
:100D7000E82321F461E08AE00E94BA0161E08AE0A0
:100D80000E94A0028CB580618CBD8CB580648CBD46
:100D900061E08DE00E94A00261E08BE00E94A00271
:100DA0008091FE018F5F8093FE01DFBE60E08A8943
:100DB0000E94BA0180EC0E94890161E08A890E9448
:100DC000BA010E94D50C60E8C8010E947F05882303
:100DD00021F00E94D50C83E0D4C00E94D50C81E0A4
:100DE000E81621F082E0E816C9F1BFC08F2D90E02F
:100DF000FC013197E031F10508F0B7C0EC5CFF4F22
:100E00000C942010C7E8DFEFBAC0C5E8D1EFB3C03B
:100E1000C7E0DEEB49E063C0C7E8DFEF33C0C7E8F7
:100E2000DAEF30C0C7E8DFEF38C0C7E0DEEB35C02F
:100E3000C7E0DDEA32C0C7E8DAEF2FC0C6E8D0EF7E
:100E40002CC0C7E8DAEF39C0C5E8D1EF41E447C0AC
:100E5000C6E8D0EF3FC0C2E8D0ED3CC08F2D90E097
:100E6000FC013197E031F10508F07FC0EC5BFF4FEA
:100E70000C942010C7E0DFEB7EC0C7E0DFEB02C0C0
:100E8000C4E0D4EA47E02BC0C7E0DEEB44E027C073
:100E9000C7E0DFEB02C0C6E0D4EB43E020C0C7E010
:100EA000DFEB0BC0C7E0DEEB08C0C7E0DDEA05C042
:100EB000C6E0D4EB02C0C5E0D1EB41E010C0C6E013
:100EC000D4EB08C0C5E0D1EB05C0C2E0D0E902C058
:100ED000C0E0D0E840E003C0C7E8DFEF4FE36AE2DC
:100EE000C8010E943F024D2F69E2C8010E943F02E3
:100EF0004C2F68E2C8010E943F020E94D50CC0E35B
:100F000040E06C2FC8010E943F0260E16C0F40E09E
:100F1000C8010E943F0260E26C0F40E0C8010E94DD
:100F20003F02CF5FCE3361F740E060E6C8010E9428
:100F30003F0240E060E7C8010E943F0243E06BE2ED
:100F4000C8010E943F0224E044E660E6C8010E9416
:100F5000F30320E040E660E7C8010E94F30360E08D
:100F6000C8010E947F05811134CF0E94D50C80E01A
:100F700008C0C7E8DFEF4FE0B2CFC7E0DFEB4FE1DB
:100F8000AECFDF91CF911F910F91FF90EF90DF9047
:100F900008958F929F92AF92BF92CF92DF92EF927D
:100FA000FF92CF93DF93EC017C0122E0E20EF11C73
:100FB000C7010E94DB0380FF07C061E6C7010E94F2
:100FC000FF0420E041E008C081FF26C061E7C701BF
:100FD0000E94FF0420E042E06CE2C7010E94F3039C
:100FE0008F818EA38B819C81AD81BE818A8F9B8FE7
:100FF000AC8FBD8FFE017E9680E090E02F8130E0C7
:101000008217930764F48830910549F0DF01569701
:101010002C9121930196F2CF1EA283E075C06A8DB8
:101020007B8D8C8D9D8D61157105810520E2920768
:10103000A0F7E881F981309791F48A818823A1F0A3
:1010400064E58AE492E00E945E0D8D8D0E94AB05FE
:101050008C8D0E94AB058B8D0E94AB0512C009954B
:10106000882309F450C0E9CF64E78AE492E00E9443
:101070005E0D6B8D6F7070E080E090E040E10E944B
:101080007A0D8A8D0E94AB056EA16F7070E080E0D2
:1010900090E040E10E947A0DF12C8EA1F81640F408
:1010A000FE01EF0DF11D868D0E94AB05F394F5CF87
:1010B000898D882341F18FB7F894C090FA01D090C0
:1010C000FB01E090FC01F090FD018FBF898D813024
:1010D00059F4C701B60120E63AEE40E050E00E9424
:1010E000FE0F6B017C0109C04701AA24BB24892D96
:1010F0000E94AB05882D0E94AB058D2D0E94AB058B
:101100008C2D0E94AB0580E0DF91CF91FF90EF9096
:10111000DF90CF90BF90AF909F908F900895AF9247
:10112000BF92CF92DF92EF92FF920F931F93CF93D4
:10113000DF9300D0CDB7DEB78C010C5B1F4F6C0185
:101140002AE4C20ED11CEE24E3948AE492E00E94C9
:10115000DD0B892B41F18AE492E00E94BB0BF82E53
:1011600089831A82F801A480B580FFEFAF1ABF0A05
:10117000B501C8010E940C0D882379F0F801208187
:10118000318184819581BE016F5F7F4F820F931FF4
:101190000E943F12F801B582A482FDE0FF12D5CF74
:1011A000F601E082D2CF0F900F90DF91CF911F9187
:1011B0000F91FF90EF90DF90CF90BF90AF90089588
:1011C0006F927F928F929F92AF92BF92CF92DF9257
:1011D000EF92FF920F931F93CF93DF93EC017C016B
:1011E0008AE4E80EF11CF7018081882309F401C22A
:1011F0005E01F8E4AF0EB11CF50180819181019789
:101200008E010C5B1F4F4C9708F0EAC1F80160811A
:101210007181CE0187960E943F1260E771E087EEF0
:1012200092E00E94650DF50140815181F8016081D5
:10123000718187EE92E00E94900B62E871E087EE88
:1012400092E00E94650D1E8AEFA18E2F90E0FC01B6
:10125000E154F109E633F10508F0A7C1EC5AFF4F5C
:101260000C94201084E0A8C1DD88D110A0C188A50D
:101270000E9497058A3008F4D82E84E0D89EF001A9
:101280001124EE5DFE4F80818B8B8DC18D89811184
:101290008EC1CE010E94960681118EC191E09D8B78
:1012A0008BC18D89882309F482C11D8A7CC18D89F7
:1012B000813009F07CC1CE010E945D068BA50E94A1
:1012C0009705893010F4D82E01C0D12CDEA25E0122
:1012D0009EE1A90EB11C4E01EDE28E0E911C35016E
:1012E000862D8A198D15A8F4F401319780810E940A
:1012F0009705C82EF40180810E949705F0E1CF9EEA
:10130000800D1124F30181933F01F2E08F0E911CB7
:10131000E7CF4A8D5B8D6C8D7D8DCE0102961A8252
:101320004B835C836D837E83DF82188AF501DE0147
:1013300018969E01205F3F4F41914D93A217B3072E
:10134000D9F7ACC08D89813009F02DC1CE010E9442
:10135000BC0588A90E949705893010F4D82E01C0D9
:10136000D12CDEA25E018EE1A80EB11C4E0192E3EB
:10137000890E911C3501862D8A198D15A8F4F4016A
:10138000319780810E949705C82EF40180810E94C8
:101390009705F0E1CF9E800D1124F30181933F0169
:1013A000F2E08F0E911CE7CF4A8D5B8D6C8D7D8DA9
:1013B000CE01029621E02A834B835C836D837E837A
:1013C000DF82188AF501DE0118969E01205F3F4FEB
:1013D00041914D93A217B307D9F70E943A048111A6
:1013E000E6C0888D882309F4E7C082E0E5C08D89D6
:1013F000813009F0DCC0CE010E945D068BA50E9401
:101400009705893010F4982F01C090E09EA34A8D73
:101410005B8D6C8D7D8D9E012E5F3F4F1A824B83BD
:101420005C836D837E839F8381E0888BDE015E9683
:10143000FE013896CE0140964D914193E817F90789
:10144000D9F7C9012BC08D89813009F0B0C0CE0118
:101450000E94BC0588A90E949705893010F4982F36
:1014600001C090E09EA38A8C9B8CAC8CBD8CAE019D
:101470004E5F5F4F21E02A838B829C82AD82BE82C9
:101480009F83288BDE015E96FE013896CE01409642
:101490002D912193E817F907D9F7CA010E943A0460
:1014A000811185C081E0988D911186C07CC08D89A5
:1014B000882309F47CC0888D811179C0CE01029601
:1014C0000E94DB03837009F46EC073C08D8988238A
:1014D00009F46DC0888D81116AC05E0182E0A80E9A
:1014E000B11CC5010E94DB03837009F0A2C061E456
:1014F0008AE492E00E945E0D56C066E48AE492E0BF
:101500000E945E0D6DE2CE0102960E941E04982F8D
:10151000987F09F480E0887F0E94AB0544C08D89E4
:10152000811145C081E098A5913309F080E0888F52
:101530003AC088A50E949705873008F080E094E0C3
:10154000899FF0011124EA5FFE4F608171818281E1
:1015500093810E945E0C27C065E871E002C06BE8D1
:1015600071E08AE492E00E94650D1DC08D898111B1
:101570001EC088A5813311F481E003C0823319F4C1
:1015800082E0898F10C0198E0EC08D89882379F072
:1015900088A5813311F481E003C0823319F482E01D
:1015A0008F8B01C01F8A80E007C085E005C083E003
:1015B00003C0CE010E94C9078E8B813031F048F004
:1015C000823051F48AE590E002C08AE790E00E9400
:1015D000D00C8DE090E002C087E090E00E94D00C3B
:1015E00040E050E064E871E0C8010E94330DF7016B
:1015F00010828D898823C9F106E010E07E01F2E0B7
:10160000EF0EF11CC7010E94DB038370E1F48AE452
:1016100092E0DF91CF911F910F91FF90EF90DF90BB
:10162000CF90BF90AF909F908F907F906F900C94D1
:101630003C0CCE010E94C9078111BECF8DE090E025
:101640000E94D00C4ECF0150110909F36BE287EED6
:1016500092E00E945E0DCE010E94C9078111D2CF97
:101660008DE090E00E94D00CCDCFDF91CF911F9103
:101670000F91FF90EF90DF90CF90BF90AF909F9031
:101680008F907F906F900895CF93DF938091440265
:1016900090914502892BC9F58BE490E00E943A10A5
:1016A000EC018BE4FE0111928A95E9F78AE08A8BBE
:1016B00061E00E94A00261E08A890E94BA0189E08B
:1016C0008B8B81E08C8B1D8A1E8A1F8A188E198E47
:1016D0001A8E1B8E1C8E1D8E1EA2FE01EC5BFF4F10
:1016E00011821082138212821582148240E050E02F
:1016F00064E871E0CF010E94330DFE01E65BFF4F0D
:101700001082D0934502C09344028091440290918C
:101710004502DF91CF9108950E94440B0C948F08ED
:10172000CF92DF92EF92FF920F931F93CF93DF93AD
:101730006C017A018B01C0E0D0E0CE15DF0589F0A5
:10174000D8016D918D01D601ED91FC910190F08150
:10175000E02DC6010995892B11F47E0102C0219666
:10176000ECCFC701DF91CF911F910F91FF90EF90C8
:10177000DF90CF900895FC01918D828D981761F0D4
:10178000828DDF01A80FB11D5D968C91928D9F5FB8
:101790009F73928F90E008958FEF9FEF0895FC0163
:1017A000918D828D981731F0828DE80FF11D858D16
:1017B00090E008958FEF9FEF0895FC01918D228DA9
:1017C000892F90E0805C9F4F821B91098F7399272E
:1017D00008958AE492E00E94DD0B21E0892B09F450
:1017E00020E0822F08950E943112EF92FF920F9312
:1017F0001F93CF93DF93EC0181E0888F9B8D8C8DBD
:10180000981305C0E889F989808185FD24C0F62EEA
:101810000B8D10E00F5F1F4F0F731127E02E8C8D83
:10182000E8120CC00FB607FCFACFE889F98980816D
:1018300085FFF5CFCE010E949901F1CF8B8DFE017E
:10184000E80FF11DE35AFF4FF0820B8FEA89FB8905
:101850008081806207C0EE89FF896083E889F98909
:1018600080818064808381E090E0DF91CF911F913F
:101870000F91FF90EF900895CF93DF93EC01888D47
:101880008823C9F0EA89FB89808185FD05C0A88984
:10189000B9898C9186FD0FC00FB607FCF5CF80810A
:1018A00085FFF2CFA889B9898C9185FFEDCFCE0154
:1018B0000E949901E7CFDF91CF910895CF92DF92F7
:1018C000EF92FF926B017C01E0915A02F0915B0272
:1018D00082E08083C11481EED806E104F104B1F006
:1018E00060E079E08DE390E0A70196010E94FE0F91
:1018F000DA01C9010197A109B109B695A795979594
:1019000087959C01211580E13807B8F0E0915A02D3
:10191000F0915B02108260E874E88EE190E0A7012C
:1019200096010E94FE0FDA01C9010197A109B109D0
:10193000B695A795979587959C01E0915602F091F1
:1019400057023083E0915802F0915902208310929F
:101950006202E0915E02F0915F0286E08083E09196
:101960005C02F0915D02808180618083E0915C0285
:10197000F0915D02808188608083E0915C02F0914B
:101980005D02808180688083E0915C02F0915D025D
:1019900080818F7D8083FF90EF90DF90CF900895BE
:1019A000682F8AE492E00C94F50B8F929F92AF928D
:1019B000BF92CF92DF92EF92FF920E94DC024B0126
:1019C0005C018AE0C82ED12CE12CF12C0E94DC02B3
:1019D000DC01CB0188199909AA09BB09883E93400B
:1019E000A105B10558F021E0C21AD108E108F108BB
:1019F00088EE880E83E0981EA11CB11CC114D1048E
:101A0000E104F10419F7FF90EF90DF90CF90BF90C1
:101A1000AF909F908F9008950F931F93CF93DF9374
:101A2000EC0188819981009729F02A813B81261752
:101A3000370788F48B016F5F7F4F0E946711009713
:101A400061F0998388831B830A832C813D81232B3A
:101A500011F4FC01108281E001C080E0DF91CF91A0
:101A60001F910F910895EF92FF920F931F93CF93C1
:101A7000DF93EC017B018A01BA010E940C0D2881E1
:101A8000398181110DC02115310519F0C9010E945C
:101A9000CF10198218821D821C821B821A8206C0F6
:101AA0001D830C83B701C9010E943F12CE01DF9153
:101AB000CF911F910F91FF90EF900895DC01ED9170
:101AC000FC910190F081E02D09946115710579F088
:101AD000FB0101900020E9F73197AF01461B570B3E
:101AE000DC01ED91FC910280F381E02D099480E00E
:101AF00090E008958F929F92AF92BF920F931F93A1
:101B0000CF93DF93CDB7DEB7A1970FB6F894DEBFC2
:101B10000FBECDBF19A2423008F44AE08E010F5D1E
:101B20001F4F842E912CA12CB12CA50194010E9451
:101B3000FE0FE62FB901CA0101501109EA3014F471
:101B4000E05D01C0E95CD801EC93232B242B252B0D
:101B500061F7B8018AE492E00E94650DA1960FB684
:101B6000F894DEBF0FBECDBFDF91CF911F910F91D3
:101B7000BF90AF909F908F9008951F920F920FB6D5
:101B80000F9211242F933F934F935F936F937F9303
:101B90008F939F93AF93BF93EF93FF938AE492E069
:101BA0000E949901FF91EF91BF91AF919F918F9109
:101BB0007F916F915F914F913F912F910F900FBE49
:101BC0000F901F9018951F920F920FB60F9211242D
:101BD0002F938F939F93EF93FF93E0915A02F0918D
:101BE0005B028081E0916002F091610282FD12C08F
:101BF0009081809163028F5F8F73209164028217BE
:101C000051F0E0916302F0E0E65BFD4F958F809329
:101C1000630201C08081FF91EF919F918F912F917D
:101C20000F900FBE0F901F90189584E691E090934F
:101C3000E8028093E70287EE92E00C94C5031092CD
:101C40004D0210924C0288EE93E0A0E0B0E0809349
:101C50004E0290934F02A0935002B093510224E59C
:101C600031E030934B0220934A0225EC30E0309370
:101C700057022093560224EC30E03093590220930F
:101C8000580220EC30E030935B0220935A0221ECA2
:101C900030E030935D0220935C0222EC30E0309320
:101CA0005F0220935E0226EC30E0309361022093C5
:101CB0006002109263021092640210926502109208
:101CC00066021092EA021092E9028093EB0290936E
:101CD000EC02A093ED02B093EE0284E691E09093C3
:101CE000E8028093E7021092FE021092FD02109229
:101CF00000031092FF02109202031092010310924F
:101D0000040310920303609105036E7F6D7F60935F
:101D100005036695617081E0682789E00E94BA0139
:101D200061E089E00E94A002E3E6F1E0E491E09343
:101D3000F702EFE4F1E0E491F0E0EE0FFF1FEE5C5C
:101D4000FE4F859194919093F9028093F80260E0A0
:101D500088E00E94A0028091050381FD04C061E03B
:101D600088E00E94BA0188E08093F302E2E6F1E0A5
:101D7000E491E093F402EEE4F1E0E491F0E0EE0FA0
:101D8000FF1FE45CFE4F859194919093F60280933F
:101D9000F5020895789484B5826084BD84B581602D
:101DA00084BD85B5826085BD85B5816085BD809126
:101DB0006E00816080936E0010928100809181009E
:101DC0008260809381008091810081608093810096
:101DD000809180008160809380008091B100846058
:101DE0008093B1008091B00081608093B0008091B9
:101DF0007A00846080937A0080917A008260809378
:101E00007A0080917A00816080937A0080917A00D4
:101E1000806880937A001092C10060E072EC81E0EB
:101E200090E00E945E0C1092020310920103109247
:101E300000031092FF021092FE021092FD028FE149
:101E400090E090930403809303039091F302963102
:101E500008F057C021E030E03093FE022093FD02ED
:101E60002DE130E0309300032093FF022DE030E0BD
:101E7000309302032093010320916800983050F0C2
:101E800031E09E3008F430E081E001C0880F3A95DF
:101E9000EAF701C084E0822B80936800983038F024
:101EA0009E3040F0963148F020E030E008C02DE64A
:101EB00030E005C02BE630E002C02CE630E0309385
:101EC000FB022093FA02983030F481E001C0880FC1
:101ED0009A95EAF70EC0292F30E09E3018F428506A
:101EE000310902C02E50310981E001C0880F2A95C6
:101EF000EAF78093FC028091030390910403019719
:101F0000F1F78091010390910203892B21F18091D7
:101F100048029091490222E0873E9207E1F0009743
:101F200011F00E94C503809105038E7F8093050305
:101F3000109247021092460287EE92E09093490277
:101F400080934802E091FA02F091FB029081809127
:101F5000FC02892B808361E971E087EE92E00E94A8
:101F6000650D62E871E087EE92E00E94650D0E94C7
:101F7000440B2CE0FC01238B0E94440B22E0FC016B
:101F8000248B0E94440BEC018C010C5B1F4F68EC0E
:101F900070E0C8010E940C0D811106C06DEA71E06D
:101FA00087EE92E00E94650D41E050E06AE471E046
:101FB000C8010E94330DFE01E65BFF4F81E0808384
:101FC000CE010E94E0080E94440B0E94E0080E949B
:101FD0009001F9CF97FB072E16F4009407D077FDF8
:101FE00009D00E94261007FC05D03EF490958195FB
:101FF0009F4F0895709561957F4F0895A1E21A2E25
:10200000AA1BBB1BFD010DC0AA1FBB1FEE1FFF1F9C
:10201000A217B307E407F50720F0A21BB30BE40BEC
:10202000F50B661F771F881F991F1A9469F7609533
:102030007095809590959B01AC01BD01CF010895ED
:10204000EE0FFF1F0590F491E02D0994AA1BBB1B16
:1020500051E107C0AA1FBB1FA617B70710F0A61BA8
:10206000B70B881F991F5A95A9F780959095BC01C9
:10207000CD010895CF93DF938230910510F482E073
:1020800090E0E0910803F091090320E030E0C0E027
:10209000D0E0309711F14081518148175907C0F0C5
:1020A0004817590761F482819381209719F09B8327
:1020B0008A832BC0909309038093080326C02115BF
:1020C000310519F04217530718F49A01BE01DF01D8
:1020D000EF010280F381E02DDCCF2115310509F1FC
:1020E000281B390B2430310590F412968D919C9168
:1020F00013976115710521F0FB019383828304C05E
:102100009093090380930803FD01329644C0FD01BA
:10211000E20FF31F81939193225031092D933C9349
:102120003AC02091060330910703232B41F42091FC
:10213000020130910301309307032093060320919D
:102140000001309101012115310541F42DB73EB751
:102150004091040150910501241B350BE0910603C9
:10216000F0910703E217F307A0F42E1B3F0B28178B
:10217000390778F0AC014E5F5F4F2417350748F000
:102180004E0F5F1F50930703409306038193919373
:1021900002C0E0E0F0E0CF01DF91CF9108950F930E
:1021A0001F93CF93DF93009709F48CC0FC01329703
:1021B0001382128200910803109109030115110581
:1021C00081F420813181820F931F20910603309189
:1021D00007032817390779F5F0930703E0930603FF
:1021E00071C0D80140E050E0AE17BF0750F412961E
:1021F0002D913C911397AD012115310509F1D901BC
:10220000F3CF9D01DA013383228360817181860FD0
:10221000971F8217930769F4EC0128813981260FF3
:10222000371F2E5F3F4F318320838A819B819383A9
:102230008283452B29F4F0930903E093080342C0FD
:102240001396FC93EE931297ED01499159919E01DB
:10225000240F351FE217F30771F480819181840FF9
:10226000951F029611969C938E938281938113966B
:102270009C938E931297E0E0F0E0D80112968D9136
:102280009C911397009719F0F8018C01F6CF8D916E
:102290009C9198012E5F3F4F820F931F2091060360
:1022A000309107032817390769F4309729F4109201
:1022B00009031092080302C01382128210930703CD
:1022C00000930603DF91CF911F910F910895A0E035
:1022D000B0E0EDE6F1E10C944A12EC01009721F434
:1022E000CB010E943A10B8C0FC01E60FF71F9C0119
:1022F00022503109E217F30708F4ACC0D9010D915F
:102300001C91119706171707B0F00530110508F456
:102310009FC0C80104978617970708F499C0025018
:102320001109061B170B019311936D937C93CF0139
:102330000E94CF108DC05B01A01AB10A4C01800E23
:10234000911EA0910803B091090340E050E0E12CF8
:10235000F12C109709F44AC0A815B905D1F56D9074
:102360007C901197630182E0C80ED11CCA14DB0473
:1023700080F1A3014A195B096A0182E0C80ED11CF1
:102380001296BC9012971396AC91B5E0CB16D1047F
:1023900040F0B282A38351834083D9016D937C9333
:1023A0000AC00E5F1F4FC301800F911FF901918377
:1023B0008083EB2DFA2FE114F10431F0D70113964D
:1023C000FC93EE93129744C0F0930903E093080343
:1023D0003FC08D919C9111974817590708F4AC01A3
:1023E0007D0112960D90BC91A02DB3CF8091060374
:1023F0009091070388159905E1F446175707C8F42B
:102400008091000190910101009741F48DB79EB732
:102410004091040150910501841B950BE817F907C1
:10242000C8F4F0930703E0930603F9017183608316
:102430000FC0CB010E943A107C01009759F0A8010F
:10244000BE010E943612CE010E94CF10C70104C007
:10245000CE0102C080E090E0CDB7DEB7EEE00C9494
:10246000661281E090E0F8940C947D12FB01DC018F
:1024700002C001900D9241505040D8F70895FB01E1
:10248000DC0101900D920020E1F708952F923F9218
:102490004F925F926F927F928F929F92AF92BF9274
:1024A000CF92DF92EF92FF920F931F93CF93DF9320
:1024B000CDB7DEB7CA1BDB0B0FB6F894DEBF0FBE7D
:1024C000CDBF09942A88398848885F846E847D84CA
:1024D0008C849B84AA84B984C884DF80EE80FD80CC
:1024E0000C811B81AA81B981CE0FD11D0FB6F89442
:1024F000DEBF0FBECDBFED01089510E0C8EBD0E008
:1025000004C0FE010E9420102196C93BD107C9F7E3
:04251000F894FFCF6D
:1025140000000A0380000084030000C2010000E1FF
:10252400000000960000004B0000802500006009B8
:1025340000000200000003000000070000000B0080
:1025440000000C0000000E0000000F0000000F004F
:10255400000010000000090000004F007830440023
:1025640000000000F50B900BDD0BBB0BCF0B3C0CFC
:1025740000000000FC00900B50016801E300FB0028
:10258400436F6D6D616E6420726563656976656421
:102594003A000D0A005631303133004E41313233A6
:1025A4000043414E2041534349492E2057656C63F3
:1025B4006F6D6520746F20646562756700696E7065
:1025C4007574537472696E672E726573657276657D
:1025D400206661696C656420696E20696E69744661
:1025E400756E632E206C657373206F7074696D61F2
:1025F4006C20537472696E6720776F726B206973F5
:0A260400206578706563746564005A
:00000001FF
