:100000000C9464000C9476000C9476000C947600AA
:100010000C9476000C9476000C9476000C94760088
:100020000C9476000C9476000C9476000C940801E5
:100030000C9476000C9476000C9476000C94760068
:100040000C9476000C9476000C9476000C94760058
:100050000C94760000003A003700340031000000B4
:100060003B003800350032000202020202020202A6
:100070000404040404040404030303030303030348
:100080000101010101010101010204081020408069
:100090000102040810204080010204081020408062
:1000A0008040201008040201000000010000000050
:1000B0000000000004030006000000000000000033
:1000C000000000000000000011241FBECFE5D8E0B2
:1000D000DEBFCDBF20E0A0E6B0E001C01D92A93692
:1000E000B207E1F70E9452010C94BF010C9400008A
:1000F000E8EAF0E02491E8E8F0E09491E8E6F0E046
:10010000E491EE2331F1222381F0243039F02630BE
:1001100049F0233051F42FB52F7702C02FB52F7D32
:100120002FBD03C025B52F7D25BDF0E0EE0FFF1FCD
:10013000E25AFF4FA591B4912FB7F894811105C0F1
:100140008C91E92FE095E82302C0EC91E92BEC9328
:100150002FBF08959FB7F8944091650050916600B5
:10016000609167007091680082B708B600FE06C013
:100170008F3F21F04F5F5F4F6F4F7F4F9FBF762FB5
:10018000652F542F44279A01AB01280F311D411DC3
:10019000511DA5E0B0E00E94A50108958F929F92A5
:1001A000AF92BF92CF92DF92EF92FF926B017C01F0
:1001B0000E94AA004B015C01C114D104E104F104C6
:1001C000F1F00E94AA00DC01CB0188199909AA0963
:1001D000BB09883E9340A105B10570F321E0C21A26
:1001E000D108E108F10888EE880E83E0981EA11C72
:1001F000B11CC114D104E104F10419F7DDCFFF9063
:10020000EF90DF90CF90BF90AF909F908F90089528
:100210001F920F920FB60F9211242F933F938F933B
:100220009F93AF93BF938091610090916200A091E2
:100230006300B0916400309160002DE2230F2D37F0
:1002400020F40196A11DB11D05C020EB230F0296DD
:10025000A11DB11D20936000809361009093620006
:10026000A0936300B0936400809165009091660054
:10027000A0916700B09168000196A11DB11D809307
:10028000650090936600A0936700B0936800BF91EB
:10029000AF919F918F913F912F910F900FBE0F9033
:1002A0001F901895789483B7826083BF83B781606D
:1002B00083BF89B7816089BF1EBC8EB582608EBD49
:1002C0008EB581608EBD8FB581608FBD85B5846030
:1002D00085BD85B5806485BD329A319A3098379A4C
:1002E0001AB8E8E8F0E02491E8E6F0E08491882389
:1002F00099F090E0880F991FFC01EC5AFF4FA591EF
:10030000B491FC01E25AFF4F859194918FB7F89414
:10031000EC91E22BEC938FBFC0E0D0E081E00E9433
:10032000780062E070E080E090E00E94CE0080E023
:100330000E9478006EEC77E080E090E00E94CE00B2
:10034000209761F30E940000E9CF0E94B001A59FB1
:10035000900DB49F900DA49F800D911D11240895C0
:10036000A29FB001B39FC001A39F700D811D1124F6
:10037000911DB29F700D811D1124911D0895F89457
:02038000FFCFAD
:00000001FF
